{"abi":[{"type":"constructor","inputs":[{"name":"priceFeed","type":"address","internalType":"address"}],"stateMutability":"nonpayable"},{"type":"fallback","stateMutability":"payable"},{"type":"receive","stateMutability":"payable"},{"type":"function","name":"MINIMUM_USD","inputs":[],"outputs":[{"name":"","type":"uint256","internalType":"uint256"}],"stateMutability":"view"},{"type":"function","name":"cheaperWithdraw","inputs":[],"outputs":[],"stateMutability":"nonpayable"},{"type":"function","name":"fund","inputs":[],"outputs":[],"stateMutability":"payable"},{"type":"function","name":"getAddressToAmountFunded","inputs":[{"name":"fundingAddress","type":"address","internalType":"address"}],"outputs":[{"name":"","type":"uint256","internalType":"uint256"}],"stateMutability":"view"},{"type":"function","name":"getFunder","inputs":[{"name":"index","type":"uint256","internalType":"uint256"}],"outputs":[{"name":"","type":"address","internalType":"address"}],"stateMutability":"view"},{"type":"function","name":"getOwner","inputs":[],"outputs":[{"name":"","type":"address","internalType":"address"}],"stateMutability":"view"},{"type":"function","name":"getVersion","inputs":[],"outputs":[{"name":"","type":"uint256","internalType":"uint256"}],"stateMutability":"view"},{"type":"function","name":"withdraw","inputs":[],"outputs":[],"stateMutability":"nonpayable"},{"type":"error","name":"FundMe_NotOwner","inputs":[]}],"bytecode":{"object":"0x608060405234801561000f575f80fd5b506040516110e23803806110e283398181016040528101906100319190610115565b3360025f6101000a81548173ffffffffffffffffffffffffffffffffffffffff021916908373ffffffffffffffffffffffffffffffffffffffff1602179055508060035f6101000a81548173ffffffffffffffffffffffffffffffffffffffff021916908373ffffffffffffffffffffffffffffffffffffffff16021790555050610140565b5f80fd5b5f73ffffffffffffffffffffffffffffffffffffffff82169050919050565b5f6100e4826100bb565b9050919050565b6100f4816100da565b81146100fe575f80fd5b50565b5f8151905061010f816100eb565b92915050565b5f6020828403121561012a576101296100b7565b5b5f61013784828501610101565b91505092915050565b610f958061014d5f395ff3fe60806040526004361061007e575f3560e01c8063893d20e81161004d578063893d20e81461013d578063b60d428814610167578063be2693f014610171578063d7b4750c146101875761008d565b80630343fb25146100975780630d8e6e2c146100d35780633ccfd60b146100fd5780636b69a592146101135761008d565b3661008d5761008b6101c3565b005b6100956101c3565b005b3480156100a2575f80fd5b506100bd60048036038101906100b89190610a6f565b6102f5565b6040516100ca9190610ab2565b60405180910390f35b3480156100de575f80fd5b506100e761033a565b6040516100f49190610ab2565b60405180910390f35b348015610108575f80fd5b506101116103ce565b005b34801561011e575f80fd5b506101276105fc565b6040516101349190610ab2565b60405180910390f35b348015610148575f80fd5b50610151610608565b60405161015e9190610ada565b60405180910390f35b61016f6101c3565b005b34801561017c575f80fd5b50610185610630565b005b348015610192575f80fd5b506101ad60048036038101906101a89190610b1d565b610863565b6040516101ba9190610ada565b60405180910390f35b674563918244f4000061020060035f9054906101000a900473ffffffffffffffffffffffffffffffffffffffff16346108a790919063ffffffff16565b1015610241576040517f08c379a000000000000000000000000000000000000000000000000000000000815260040161023890610ba2565b60405180910390fd5b345f803373ffffffffffffffffffffffffffffffffffffffff1673ffffffffffffffffffffffffffffffffffffffff1681526020019081526020015f205f82825461028c9190610bed565b92505081905550600133908060018154018082558091505060019003905f5260205f20015f9091909190916101000a81548173ffffffffffffffffffffffffffffffffffffffff021916908373ffffffffffffffffffffffffffffffffffffffff160217905550565b5f805f8373ffffffffffffffffffffffffffffffffffffffff1673ffffffffffffffffffffffffffffffffffffffff1681526020019081526020015f20549050919050565b5f60035f9054906101000a900473ffffffffffffffffffffffffffffffffffffffff1673ffffffffffffffffffffffffffffffffffffffff166354fd4d506040518163ffffffff1660e01b8152600401602060405180830381865afa1580156103a5573d5f803e3d5ffd5b505050506040513d601f19601f820116820180604052508101906103c99190610c34565b905090565b60025f9054906101000a900473ffffffffffffffffffffffffffffffffffffffff1673ffffffffffffffffffffffffffffffffffffffff163373ffffffffffffffffffffffffffffffffffffffff1614610454576040517f10e0797900000000000000000000000000000000000000000000000000000000815260040160405180910390fd5b5f5b6001805490508110156104f1575f6001828154811061047857610477610c5f565b5b905f5260205f20015f9054906101000a900473ffffffffffffffffffffffffffffffffffffffff1690505f805f8373ffffffffffffffffffffffffffffffffffffffff1673ffffffffffffffffffffffffffffffffffffffff1681526020019081526020015f2081905550508080600101915050610456565b505f67ffffffffffffffff81111561050c5761050b610c8c565b5b60405190808252806020026020018201604052801561053a5781602001602082028036833780820191505090505b506001908051906020019061055092919061096f565b505f3373ffffffffffffffffffffffffffffffffffffffff164760405161057690610ce6565b5f6040518083038185875af1925050503d805f81146105b0576040519150601f19603f3d011682016040523d82523d5f602084013e6105b5565b606091505b50509050806105f9576040517f08c379a00000000000000000000000000000000000000000000000000000000081526004016105f090610d44565b60405180910390fd5b50565b674563918244f4000081565b5f60025f9054906101000a900473ffffffffffffffffffffffffffffffffffffffff16905090565b60025f9054906101000a900473ffffffffffffffffffffffffffffffffffffffff1673ffffffffffffffffffffffffffffffffffffffff163373ffffffffffffffffffffffffffffffffffffffff16146106b6576040517f10e0797900000000000000000000000000000000000000000000000000000000815260040160405180910390fd5b5f60018054905090505f5b81811015610757575f600182815481106106de576106dd610c5f565b5b905f5260205f20015f9054906101000a900473ffffffffffffffffffffffffffffffffffffffff1690505f805f8373ffffffffffffffffffffffffffffffffffffffff1673ffffffffffffffffffffffffffffffffffffffff1681526020019081526020015f20819055505080806001019150506106c1565b505f67ffffffffffffffff81111561077257610771610c8c565b5b6040519080825280602002602001820160405280156107a05781602001602082028036833780820191505090505b50600190805190602001906107b692919061096f565b505f3373ffffffffffffffffffffffffffffffffffffffff16476040516107dc90610ce6565b5f6040518083038185875af1925050503d805f8114610816576040519150601f19603f3d011682016040523d82523d5f602084013e61081b565b606091505b505090508061085f576040517f08c379a000000000000000000000000000000000000000000000000000000000815260040161085690610d44565b60405180910390fd5b5050565b5f6001828154811061087857610877610c5f565b5b905f5260205f20015f9054906101000a900473ffffffffffffffffffffffffffffffffffffffff169050919050565b5f806108b2836108e1565b90505f670de0b6b3a764000085836108ca9190610d62565b6108d49190610dd0565b9050809250505092915050565b5f808273ffffffffffffffffffffffffffffffffffffffff1663feaf968c6040518163ffffffff1660e01b815260040160a060405180830381865afa15801561092c573d5f803e3d5ffd5b505050506040513d601f19601f820116820180604052508101906109509190610e72565b5050509150506402540be400816109679190610ee9565b915050919050565b828054828255905f5260205f209081019282156109e5579160200282015b828111156109e4578251825f6101000a81548173ffffffffffffffffffffffffffffffffffffffff021916908373ffffffffffffffffffffffffffffffffffffffff1602179055509160200191906001019061098d565b5b5090506109f291906109f6565b5090565b5b80821115610a0d575f815f9055506001016109f7565b5090565b5f80fd5b5f73ffffffffffffffffffffffffffffffffffffffff82169050919050565b5f610a3e82610a15565b9050919050565b610a4e81610a34565b8114610a58575f80fd5b50565b5f81359050610a6981610a45565b92915050565b5f60208284031215610a8457610a83610a11565b5b5f610a9184828501610a5b565b91505092915050565b5f819050919050565b610aac81610a9a565b82525050565b5f602082019050610ac55f830184610aa3565b92915050565b610ad481610a34565b82525050565b5f602082019050610aed5f830184610acb565b92915050565b610afc81610a9a565b8114610b06575f80fd5b50565b5f81359050610b1781610af3565b92915050565b5f60208284031215610b3257610b31610a11565b5b5f610b3f84828501610b09565b91505092915050565b5f82825260208201905092915050565b7f596f75206e65656420746f207370656e64206d6f7265204554482100000000005f82015250565b5f610b8c601b83610b48565b9150610b9782610b58565b602082019050919050565b5f6020820190508181035f830152610bb981610b80565b9050919050565b7f4e487b71000000000000000000000000000000000000000000000000000000005f52601160045260245ffd5b5f610bf782610a9a565b9150610c0283610a9a565b9250828201905080821115610c1a57610c19610bc0565b5b92915050565b5f81519050610c2e81610af3565b92915050565b5f60208284031215610c4957610c48610a11565b5b5f610c5684828501610c20565b91505092915050565b7f4e487b71000000000000000000000000000000000000000000000000000000005f52603260045260245ffd5b7f4e487b71000000000000000000000000000000000000000000000000000000005f52604160045260245ffd5b5f81905092915050565b50565b5f610cd15f83610cb9565b9150610cdc82610cc3565b5f82019050919050565b5f610cf082610cc6565b9150819050919050565b7f43616c6c206661696c65640000000000000000000000000000000000000000005f82015250565b5f610d2e600b83610b48565b9150610d3982610cfa565b602082019050919050565b5f6020820190508181035f830152610d5b81610d22565b9050919050565b5f610d6c82610a9a565b9150610d7783610a9a565b9250828202610d8581610a9a565b91508282048414831517610d9c57610d9b610bc0565b5b5092915050565b7f4e487b71000000000000000000000000000000000000000000000000000000005f52601260045260245ffd5b5f610dda82610a9a565b9150610de583610a9a565b925082610df557610df4610da3565b5b828204905092915050565b5f69ffffffffffffffffffff82169050919050565b610e1e81610e00565b8114610e28575f80fd5b50565b5f81519050610e3981610e15565b92915050565b5f819050919050565b610e5181610e3f565b8114610e5b575f80fd5b50565b5f81519050610e6c81610e48565b92915050565b5f805f805f60a08688031215610e8b57610e8a610a11565b5b5f610e9888828901610e2b565b9550506020610ea988828901610e5e565b9450506040610eba88828901610c20565b9350506060610ecb88828901610c20565b9250506080610edc88828901610e2b565b9150509295509295909350565b5f610ef382610e3f565b9150610efe83610e3f565b9250828202610f0c81610e3f565b91507f800000000000000000000000000000000000000000000000000000000000000084145f84121615610f4357610f42610bc0565b5b8282058414831517610f5857610f57610bc0565b5b509291505056fea2646970667358221220aafbdeff0c0e7b162973e4f1343995bece38ecd367fd63709dd95e918b09ecc164736f6c63430008190033","linkReferences":{}},"methodIdentifiers":{"MINIMUM_USD()":"6b69a592","cheaperWithdraw()":"be2693f0","fund()":"b60d4288","getAddressToAmountFunded(address)":"0343fb25","getFunder(uint256)":"d7b4750c","getOwner()":"893d20e8","getVersion()":"0d8e6e2c","withdraw()":"3ccfd60b"},"id":23}